01000098000000100112072410410000010000000100000000001090831.82G5E   1234567890AB        Generica            
02000098000100100112072410410000010000010000000000
14000099000000100112072419570000010000000100
14000100000000100112072420580000010000000000
14000101000000100112072421000000010000000000
14000102000000100112072421000000010000000100
14000103000000100112072421010000010000000100
