01322337000000100102072410270000090000000100000002309006041.82G5E   1234567890AB        Generica            
02322337000100100102072410270000090000090000000000
14322338000000100102072410280000090000000000
14322339000000100102072410320000090000000000
14322340000000100102072417260000090000000000
14322341000000100102072417280000090000000150
14322342000000100102072417290000090000000000
14322343000000100102072417310000090000000000
14322344000000100103072420260000090000000000
14322345000000100103072420270000090000000000
14322346000000100106072418180000090000000000
0432234700000010010607241833000009322337322347000002309006040000023090083006072400000000000000000000000000000000000001500001000000000000000000000000000000000000000000000000000000000000000000000000000000001234567890AB        
