01000121000000100125072415220000090000000100000000001290341.82G5E   1234567890AB        Generica            
02000121000100100125072415220000090000090000000000
07000122000000100125072415310000000000000000100000000000000000
090001220001001001250724153100000000000001160013200000000263000000000000000000000000000000100000000670000000000020000000000
090001220002001001250724153100000000000003250000010000000149000000000000000000000000000000000000000790000000000040000000000
090001220003001001250724153100000000000005070000010000002000I 0100000000000000000000000000000000012000000000000080000000000
090001220004001001250724153100000000000002150000040000000596000000000000000000000000000000000000000500000000000010000000000
090001220005001001250724153100000000000003110000010000000599000000000000000000000000000000000000001000000000000040000000000
090001220006001001250724153100000000000001290011500000000286000000000000000000000000000000100000000250000000000020000000000
090001220007001001250724153100000000000001260014340000000716000000000000000000000000000000100000000500000000000020000000000
090001220008001001250724153100000000000001270018060000000901000000000000000000000000000000100000000250000000000020000000000
090001220009001001250724153100000000000001250017540000000524I 0000000000000000000000000000100000000530000000000020000000000
090001220010001001250724153100000000000001060010520000000525000000000000000000000000000000100000001500000000000020000000000
090001220011001001250724153100000000000001170009940000000297000000000000000000000000000000100000000590000000000020000000000
090001220012001001250724153100000000000001140000010000000599000000000000000000000000000000000000000500000000000020000000000
090001220013001001250724153100000000000002130010520000000315000000000000000000000000000000100000001400000000000010000000000
090001220014001001250724153100000000000001220007740000000231000000000000000000000000000000100000001500000000000020000000000
11000122001500100125072415310000090000140000008001000000800100000000000000000000000000800100000000000000
120001220016001001250724153103050000000000000000000000000000000000000000008001000000000000000000000000000000
0400012300000010012507242100000001000121000123000000001290340000000013703525072400000080010000000000000000000000000000000001000000000000000000000000000000000000000000000000000000000000000000000000000000001234567890AB        
