01000096000000100110072409430000010000000100000000001056531.82G5E   1234567890AB        Generica            
02000096000100100110072409430000010000010000000000
07000097000000100110072409550000000000000000100000000000000000
090000970001001001100724095500000000000003030000010000000049000000000000000000000000000000000000000250000000000040000000000
090000970002001001100724095500000000000003030000010000000049000000000000000000000000000000000000000250000000000040000000000
090000970003001001100724095500000000000001290010560000000263000000000000000000000000000000100000000250000000000020000000000
090000970004001001100724095500000000000001160007980000000159000000000000000000000000000000100000000670000000000020000000000
090000970005001001100724095500000000000001090005800000000289000000000000000000000000000000100000001500000000000020000000000
090000970006001001100724095500000000000002070011360000000453000000000000000000000000000000100000001990000000000010000000000
090000970007001001100724095500000000000001020010160000000507000000000000000000000000000000100000001200000000000020000000000
090000970008001001100724095500000000000001050010140000000607000000000000000000000000000000100000000500000000000020000000000
090000970009001001100724095500000000000001220010760000000376000000000000000000000000000000100000001500000000000020000000000
090000970010001001100724095500000000000001180002000000000080000000000000000000000000000000100000001000000000000020000000000
090000970011001001100724095500000000000006190000010000000500000000000000000000000000000000000000000000000000000060000000000
090000970012001001100724095500000000000003030000010000000049000000000000000000000000000000000000000250000000000040000000000
090000970013001001100724095500000000000003030000010000000049000000000000000000000000000000000000000250000000000040000000000
11000097001400100110072409550000010000130000003430000000343000000000000000000000000000343000000000000000
120000970015001001100724095503050000000000000000000000000000000000000000003430000000000000000000000000000000
