USUF00080000000620161108170733
000000010000Gerente                                 [       0000000000000000000000000
000000020000Supervisor                              \       1000000000000000000000000
000000030000Operador                                ]       2000000000000000000000000
000000040000RACHEL                                  []_     2000000000000000000000000
000000050000RAISSA                                  []_     2000000000004000100000000
000000060000SHEYLA                                  []_     2000000000004000100000000
