PLUB00070000008820161122103705
00001010000000000000BATATA LISA                             00000001990000000000000000PC02016111806315210000000000000000000000000000000000000000000               00000000000000
00001020000000000000BATATINHA                               00000001490000000000000000PC02016112010554710000000000000000000000000000000000000000000               00000000000000
00001030000000000000BATATA ASTERIX                          00000001990000000000000000PC02016111308464910000000000000000000000000000000000000000000               00000000000000
00001040000000000000CEBOLA                                  00000002490000000000000000PC02016111015132210000000000000000000000000000000000000000000               00000000000000
00001050000000000000CEBOLINHA                               00000001490000000000000000PC02016111015430110000000000000000000000000000000000000000000               00000000000000
00001060000000000000CENOURA                                 00000001990000000000000000PC02016090515451710000000000000000000000000000000000000000000               00000000000000
00001070000000000000ALHO                                    00000016990000000000000000PC02016111015133810000000000000000000000000000000000000000000               00000000000000
00001080000000000000TOMATE                                  00000002990000000000000000PC02016111810140010000000000000000000000000000000000000000000               00000000000000
00001090000000000000PIMENTÃO                                00000003990000000000000000PC02016111015134510000000000000000000000000000000000000000000               00000000000000
00001100000000000000BATATA DOCE                             00000002500000000000000000PC02016111906243710000000000000000000000000000000000000000000               00000000000000
00001110000000000000BETERRABA                               00000002990000000000000000PC02016111015135710000000000000000000000000000000000000000000               00000000000000
00001120000000000000INHAME                                  00000007990000000000000000PC02016111015140110000000000000000000000000000000000000000000               00000000000000
00001130000000000000AIPIM                                   00000003990000000000000000PC02016111015140710000000000000000000000000000000000000000000               00000000000000
00001140000000000000JILÓ                                    00000004990000000000000000PC02016111015141110000000000000000000000000000000000000000000               00000000000000
00001150000000000000QUIABO                                  00000004990000000000000000PC02016112210370010000000000000000000000000000000000000000000               00000000000000
00001160000000000000REPOLHO                                 00000001490000000000000000PC02016111015141910000000000000000000000000000000000000000000               00000000000000
00001170000000000000PEPINO                                  00000002490000000000000000PC02016111015142210000000000000000000000000000000000000000000               00000000000000
00001180000000000000PEPINO JAPONÊS                          00000002990000000000000000PC02016111015142810000000000000000000000000000000000000000000               00000000000000
00001190000000000000VAGEM                                   00000005990000000000000000PC02016111810494310000000000000000000000000000000000000000000               00000000000000
00001200000000000000NABO                                    00000001990000000000000000PC02016090515485910000000000000000000000000000000000000000000               00000000000000
00001210000000000000COUVE FLOR                              00000003000000000000000000PC02016111709451800000000000000000000000000000000000000000000               00000000000000
00001220000000000000ABORORA                                 00000003500000000000000000PC02016111015144610000000000000000000000000000000000000000000               00000000000000
00001230000000000000GENGIBRE                                00000006990000000000000000PC02016111015145010000000000000000000000000000000000000000000               00000000000000
00001240000000000000CEBOLA ROXA                             00000003990000000000000000PC02016111015145510000000000000000000000000000000000000000000               00000000000000
00001250000000000000CHUCHU                                  00000000490000000000000000PC02016112207100210000000000000000000000000000000000000000000               00000000000000
00001260000000000000BERINGELA                               00000002990000000000000000PC02016111015150610000000000000000000000000000000000000000000               00000000000000
00001270000000000000ABOBRINHA ITALIANA                      00000001990000000000000000PC02016111908494310000000000000000000000000000000000000000000               00000000000000
00001280000000000000ABOBRINHA BRASILEIRA                    00000001990000000000000000PC02016111015121910000000000000000000000000000000000000000000               00000000000000
00001290000000000000TOMATINHO                               00000001990000000000000000PC02016111107082810000000000000000000000000000000000000000000               00000000000000
00001300000000000000TOMATE CEREJA                           00000001990000000000000000PC02016111810133900000000000000000000000000000000000000000000               00000000000000
00001310000000000000VAGEM EMBALADA                          00000001990000000000000000PC02016111806393000000000000000000000000000000000000000000000               00000000000000
00002010000000000000LARANJA PERA                            00000002990000000000000000PC02016111015161910000000000000000000000000000000000000000000               00000000000000
00002020000000000000LARANJA LIMA                            00000004990000000000000000PC02016111015162310000000000000000000000000000000000000000000               00000000000000
00002030000000000000LARANJA SELETA                          00000003990000000000000000PC02016111015162810000000000000000000000000000000000000000000               00000000000000
00002040000000000000LIMÃO                                   00000005990000000000000000PC02016111015163110000000000000000000000000000000000000000000               00000000000000
00002050000000000000TANGERINA POKAN                         00000005990000000000000000PC02016111215030710000000000000000000000000000000000000000000               00000000000000
00002060000000000000TANGERINA MUKOT                         00000001990000000000000000PC02016111015121910000000000000000000000000000000000000000000               00000000000000
00002070000000000000BANANA PRATA                            00000003990000000000000000PC02016112210072610000000000000000000000000000000000000000000               00000000000000
00002080000000000000BANANA D'AGUA                           00000003990000000000000000PC02016111015165110000000000000000000000000000000000000000000               00000000000000
00002090000000000000MAÇÃ NACIONAL                           00000004990000000000000000PC02016111015165510000000000000000000000000000000000000000000               00000000000000
00002100000000000000MAÇÃ ARGENTINA                          00000014990000000000000000PC02016111015170110000000000000000000000000000000000000000000               00000000000000
00002110000000000000ABACATE                                 00000008990000000000000000PC02016111015171210000000000000000000000000000000000000000000               00000000000000
00002120000000000000MELÃO                                   00000003990000000000000000PC02016111015171510000000000000000000000000000000000000000000               00000000000000
00002130000000000000MELÂNCIA                                00000002490000000000000000PC02016111015172010000000000000000000000000000000000000000000               00000000000000
00002140000000000000MAMÃO FORMOSA                           00000001990000000000000000PC02016112207355410000000000000000000000000000000000000000000               00000000000000
00002150000000000000MAMÃO PAPAYA                            00000001490000000000000000PC02016111015174600000000000000000000000000000000000000000000               00000000000000
00002160000000000000UVA RED GLOBE                           00000009990000000000000000PC02016111015175110000000000000000000000000000000000000000000               00000000000000
00002170000000000000UVA SEM CAROÇO (CAMBUCADA)              00000004990000000000000000PC02016111015175500000000000000000000000000000000000000000000               00000000000000
00002180000000000000UVA ROSADA (CAMBUCADA)                  00000004990000000000000000PC02016111015182200000000000000000000000000000000000000000000               00000000000000
00002190000000000000MORANGO                                 00000003990000000000000000PC02016111908491600000000000000000000000000000000000000000000               00000000000000
00002200000000000000ABACAXI                                 00000002000000000000025000PC02016112207582900000000000000000000000000000000000000000000               00000000000000
00002210000000000000COCO SECO                               00000006990000000000000000PC02016111710391410000000000000000000000000000000000000000000               00000000000000
00002220000000000000COCO VERDE                              00000003000000000000000000PC02016111015191300000000000000000000000000000000000000000000               00000000000000
00002230000000000000PÊRA                                    00000009990000000000000000PC02016111015192010000000000000000000000000000000000000000000               00000000000000
00002240000000000000MANGA ESPADA                            00000002990000000000000000PC02016111112300410000000000000000000000000000000000000000000               00000000000000
00002250000000000000MANGA TOMY                              00000001990000000000000000PC02016111806323510000000000000000000000000000000000000000000               00000000000000
00002260000000000000MANGA PALMER                            00000003990000000000000000PC02016111015193310000000000000000000000000000000000000000000               00000000000000
00002270000000000000MARACUJÁ                                00000006990000000000000000PC02016111015193810000000000000000000000000000000000000000000               00000000000000
00002280000000000000GOIABA                                  00000003990000000000000000PC02016111015194410000000000000000000000000000000000000000000               00000000000000
00002290000000000000LARANJA (SACO)                          00000003500000000000000000PC02016111015195300000000000000000000000000000000000000000000               00000000000000
00002300000000000000PÊSSEGO                                 00000004990000000000000000PC02016111015200010000000000000000000000000000000000000000000               00000000000000
00002310000000000000AMEIXA                                  00000006990000000000000000PC02016111110285110000000000000000000000000000000000000000000               00000000000000
00002320000000000000ABACAXI(PROMOÇÃO)                       00000005000000000000000000PC02016111909392700000000000000000000000000000000000000000000               00000000000000
00003010000000000000OVOS EXTRA DUZIA                        00000003990000000000000000PC02016111015201000000000000000000000000000000000000000000000               00000000000000
00003020000000000000LORO                                    00000000800000000000000000PC02016111015201400000000000000000000000000000000000000000000               00000000000000
00003030000000000000ALFACE                                  00000000800000000000000000PC02016111015201700000000000000000000000000000000000000000000               00000000000000
00003040000000000000COENTRO                                 00000000800000000000000000PC02016111015202100000000000000000000000000000000000000000000               00000000000000
00003050000000000000CHEIRO VERDE                            00000000800000000000000000PC02016111015202500000000000000000000000000000000000000000000               00000000000000
00003060000000000000ESPINAFRE                               00000000800000000000000000PC02016111015202800000000000000000000000000000000000000000000               00000000000000
00003070000000000000AGRIÃO                                  00000000800000000000000000PC02016111015203200000000000000000000000000000000000000000000               00000000000000
00003080000000000000SALSA                                   00000000800000000000000000PC02016111015203600000000000000000000000000000000000000000000               00000000000000
00003090000000000000CEBOLINHA                               00000000800000000000000000PC02016111015204000000000000000000000000000000000000000000000               00000000000000
00003100000000000000BROCULES                                00000001990000000000000000PC02016111015121900000000000000000000000000000000000000000000               00000000000000
00003110000000000000BRACULES AMERICANO                      00000003000000000000000000PC02016111015204800000000000000000000000000000000000000000000               00000000000000
00003120000000000000COUVE                                   00000000800000000000000000PC02016111015205100000000000000000000000000000000000000000000               00000000000000
00003130000000000000HORTELÃ                                 00000000800000000000000000PC02016111015205500000000000000000000000000000000000000000000               00000000000000
00003140000000000000ALFACE CREPA                            00000000800000000000000000PC02016111015205800000000000000000000000000000000000000000000               00000000000000
00003150000000000000ALFACE AMERICANA                        00000002000000000000000000PC02016111015210500000000000000000000000000000000000000000000               00000000000000
00003160000000000000CHICORIA                                00000000800000000000000000PC02016111015211100000000000000000000000000000000000000000000               00000000000000
00003170000000000000RUCULA                                  00000000800000000000000000PC02016111015211300000000000000000000000000000000000000000000               00000000000000
00003180000000000000MOSTARDA                                00000000800000000000000000PC02016111015211600000000000000000000000000000000000000000000               00000000000000
00003190000000000000OVOS EXTRA 1/2 DUZIA                    00000002000000000000000000PC02016111015212100000000000000000000000000000000000000000000               00000000000000
00003200000000000000OVOS EXTRA CARTELA                      00000010000000000000000000PC02016111015212800000000000000000000000000000000000000000000               00000000000000
00003210000000000000ALHO PORÓ                               00000001990000000000000000PC02016111015121900000000000000000000000000000000000000000000               00000000000000
00003220000000000000SALSÃO                                  00000001990000000000000000PC02016111015121900000000000000000000000000000000000000000000               00000000000000
00003230000000000000ALECRIM                                 00000001990000000000000000PC02016111015121900000000000000000000000000000000000000000000               00000000000000
00003240000000000000MANGERICÃO                              00000001990000000000000000PC02016111015121900000000000000000000000000000000000000000000               00000000000000
00003250000000000000PROMOÇÃO VERDURAS                       00000002000000000000000000PC02016111015214300000000000000000000000000000000000000000000               00000000000000
