PLUB00070000026720240831124357
00001010000000000000BATATA LISA                             00000006990000000000048900PC02024083008044510000000004790000000000000000000000000000050               00000000000020
00001020000000000000BATATA CAROÇO                           00000005990000000000000000PC02024083008303010000000000000000000000000000000000000000120               00000000000020
00001040000000000000CEBOLA                                  00000005990000000000000000PC02024082707382010000000000000000000000000000000000000000200               00000000000020
00001050000000000000CEBOLA CX2                              00000003990000000000000000PC02024081509131110000000000000000000000000000000000000000050               00000000000020
00001060000000000000CENOURA                                 00000003990000000000000000PC02024082807142810000000000000000000000000000000000000000150               00000000000020
00001070000000000000ALHO                                    00000034990000000000000000PC02024082010145110000000000000000000000000000000000000000500               00000000000020
00001080000000000000TOMATE                                  00000004990000000000000000PC02024082807141410000000000000000000000000000000000000000100               00000000000020
00001090000000000000PIMENTÃO                                00000005990000000000000000PC02024082707344810000000000000000000000000000000000000000150               00000000000020
00001110000000000000BETERRABA                               00000004990000000000000000PC02024081008033010000000000000000000000000000000000000000199               00000000000020
00001120000000000000INHAME                                  00000006990000000000000000PC02024082707341510000000000000000000000000000000000000000100               00000000000020
00001130000000000000AIPIM                                   00000002990000000000000000PC02024073007505210000000000000000000000000000000000000000129               00000000000020
00001140000000000000JILÓ                                    00000004990000000000000000PC02024081008084000000000000000000000000000000000000000000050               00000000000020
00001150000000000000QUIABO                                  00000009990000000000000000PC02024083008295410000000000000000000000000000000000000000100               00000000000020
00001160000000000000REPOLHO                                 00000001990000000000000000PC02024082208221010000000000000000000000000000000000000000067               00000000000020
00001170000000000000PEPINO                                  00000003990000000000000000PC02024083008301810000000000000000000000000000000000000000059               00000000000020
00001180000000000000PEPINO JAPONÊS                          00000004990000000000000000PC02024082008102010000000000000000000000000000000000000000100               00000000000020
00001190000000000000VAGEM                                   00000002990000000000000000PC02024081509254810000000000000000000000000000000000000000100               00000000000020
00001200000000000000MELÃO SAPO                              00000005990000000000000000PC02023071315245810000000000000000000000000000000000000000030               00000000000020
00001210000000000000COUVE FLOR                              00000007990000000000000000PC02024082407254300000000000000000000000000000000000000000100               00000000000020
00001220000000000000ABOBORA                                 00000002990000000000000000PC02024072508423010000000000000000000000000000000000000000150               00000000000020
00001230000000000000GENGIBRE                                00000005990000000000000000PC02024042308192900000000000000000000000000000000000000000399               00000000000020
00001240000000000000CEBOLA ROXA                             00000009990000000000000000PC02024061807385710000000000000000000000000000000000000000167               00000000000020
00001250000000000000CHUCHU                                  00000002990000000000000000PCI2024083008300910000000000000000000000000000000000000000053               00000000000020
00001260000000000000BERINGELA                               00000005990000000000000000PC02024082008093310000000000000000000000000000000000000000050               00000000000020
00001270000000000000ABOBRINHA ITALIANA                      00000002990000000000000000PC02024082208223010000000000000000000000000000000000000000025               00000000000020
00001280000000000000ABOBRINHA BRASILEIRA                    00000003990000000000000000PC02023102810133410000000000000000000000000000000000000000098               00000000000020
00001290000000000000TOMATE MEDIO                            00000002990000000000000000PC02024083008294410000000000000000000000000000000000000000025               00000000000020
00001300000000000000TOMATE CEREJA                           00000005990000000000000000PC02024020308425600000000000000000000000000000000000000000100               00000000000020
00001310000000000000VAGEM EMBALADA                          00000004990000000000000000PC02024080307260700000000000000000000000000000000000000000250               00000000000020
00001320000000000000PIMENTÃO COLORIDO                       00000007990000000000000000pc02024083112435500000000000000000000000000000000000000000390               00000000000020
00001330000000000000CARA                                    00000014990000000000000000PC02023110211024610000000000000000000000000000000000000000278               00000000000020
00001340000000000000MILHO VERDE                             00000001990000000000000000PC02024071007082000000000000000000000000000000000000000000100               00000000000020
00001360000000000000BATATA BAROA                            00000006990000000000000000PC02024051309330600000000000000000000000000000000000000000100               00000000000020
00001370000000000000BATATA DOCE BRANCA                      00000009990000000000000000PC02024051309331710000000000000000000000000000000000000000100               00000000000020
00001380000000000000MAXIXE                                  00000004990000000000000000PC02024081008093600000000000000000000000000000000000000000299               00000000000020
00001390000000000000TOMATE ITALIANO                         00000006990000000000000000PC02024031409253110000000000000000000000000000000000000000399               00000000000020
00001400000000000000REPOLHO ROXO                            00000002990000000000000000PC02024072508413110000000000000000000000000000000000000000000               00000000000020
00001410000000000000ALHO SOLTO                              00000049990000000000000000PC02024040920435610000000000000000000000000000000000000000000               00000000000020
00002010000000000000LARANJA PERA                            00000003990000000000000000PC02024083008325710000000000000000000000000000000000000000099               00000000000010
00002020000000000000LARANJA LIMA                            00000008990000000000000000PC02024071609001610000000000000000000000000000000000000000199               00000000000010
00002030000000000000LARANJA SELETA                          00000008990000000000000000PC02024081707085710000000000000000000000000000000000000000299               00000000000010
00002040000000000000LIMÃO                                   00000003990000000000000000PC02024080708011410000000000000000000000000000000000000000050               00000000000010
00002050000000000000TANGERINA POKAN                         00000009990000000000000000PC02024080608305510000000000000000000000000000000000000000089               00000000000010
00002060000000000000TANGERINA MURCOTE                       00000009990000000000000000PC02024081514213010000000000000000000000000000000000000000000               00000000000010
00002070000000000000BANANA PRATA                            00000008990000000000000000PC02024082008133910000000000000000000000000000000000000000199               00000000000010
00002080000000000000BANANA D'AGUA                           00000006990000000000000000PC02024082008134910000000000000000000000000000000000000000050               00000000000010
00002090000000000000MAÇÃ NACIONAL                           00000009990000000000000000PC02024081509172310000000000000000000000000000000000000000472               00000000000010
00002110000000000000ABACATE                                 00000007990000000000000000PC02024083108213010000000000000000000000000000000000000000099               00000000000010
00002120000000000000MELÃO                                   00000004990000000000000000PC02024073007520210000000000000000000000000000000000000000225               00000000000010
00002130000000000000MELÂNCIA                                00000002990000000000000000PC02024081509180210000000000000000000000000000000000000000140               00000000000010
00002140000000000000MAMÃO FORMOSA                           00000004990000000000000000PC02024083108261910000000000000000000000000000000000000000199               00000000000010
00002150000000000000MAMÃO PAPAYA                            00000002990000000000000000PC02024083107301300000000000000000000000000000000000000000050               00000000000010
00002160000000000000UVA RED GLOB                            00000006990000000000000000PC02023082814323200000000000000000000000000000000000000000571               00000000000010
00002170000000000000UVA SEM CAROÇO (CAMBUCADA) TOMPSON      00000008990000000000000000PC02024083008322200000000000000000000000000000000000000000650               00000000000010
00002180000000000000UVA ROSADA (CAMBUCADA)                  00000006990000000000000000PC02024082008121500000000000000000000000000000000000000000299               00000000000010
00002190000000000000MORANGO                                 00000006990000000000000000PC02024083107295900000000000000000000000000000000000000000225               00000000000010
00002200000000000000ABACAXI                                 00000006990000000000000000PC02024083107294800000000000000000000000000000000000000000099               00000000000010
00002210000000000000COCO SECO                               00000007990000000000000000PC02024070209023210000000000000000000000000000000000000000399               00000000000010
00002220000000000000COCO VERDE                              00000003990000000000000000PC02024062708292600000000000000000000000000000000000000000150               00000000000010
00002230000000000000PÊRA                                    00000011990000000000000000PC02024083008313410000000000000000000000000000000000000000498               00000000000010
00002240000000000000MANGA ESPADA                            00000002990000000000000000PC02024030411481410000000000000000000000000000000000000000150               00000000000010
00002250000000000000MANGA TOMY                              00000008990000000000000000PC02024082008104610000000000000000000000000000000000000000267               00000000000010
00002260000000000000MANGA PALMER                            00000005990000000000000000PC02024080109190310000000000000000000000000000000000000000200               00000000000010
00002270000000000000MARACUJA                                00000009990000000000000000PC02024082407344810000000000000000000000000000000000000000399               00000000000010
00002280000000000000GOIABA                                  00000006990000000000000000PC02024081008111810000000000000000000000000000000000000000100               00000000000010
00002290000000000000LARANJA (SACO)                          00000005990000000000000000PC02024083008331100000000000000000000000000000000000000000250               00000000000010
00002300000000000000PÊSSEGO                                 00000007990000000000000000PC02023122609361610000000000000000000000000000000000000000550               00000000000010
00002320000000000000ABACAXI(PROMOÇÃO)                       00000003990000000000000000PC02024083107364000000000000000000000000000000000000000000050               00000000000010
00002330000000000000KIWI                                    00000019990000000000000000PC02024073107355010000000000000000000000000000000000000000499               00000000000010
00002340000000000000AMEIXA PEQUENA                          00000005990000000000000000PC02023123008493310000000000000000000000000000000000000000050               00000000000010
00002350000000000000MAÇÃ VERDE                              00000009990000000000000000PC02024061207104810000000000000000000000000000000000000000899               00000000000010
00002360000000000000MELANCIA UNIDADE                        00000009990000000000000000PC02024073115092300000000000000000000000000000000000000000350               00000000000010
00002370000000000000UVA ITALIA                              00000006990000000000000000PC02024082008131300000000000000000000000000000000000000000399               00000000000010
00002380000000000000CEREJA                                  00000009990000000000000000PC02022122710261200000000000000000000000000000000000000000750               00000000000010
00002390000000000000UVA ROSADA / PRETINHA                   00000005990000000000000000PC02023050515110510000000000000000000000000000000000000000400               00000000000010
00002400000000000000LICHIA                                  00000010000000000000000000PC02023020210321900000000000000000000000000000000000000000150               00000000000010
00002410000000000000UVA S/CAROÇO                            00000017990000000000000000PC02021122310530210000000000000000000000000000000000000000600               00000000000010
00002420000000000000CARAMBOLA                               00000000990000000000000000PCI2022121317034710000000000000000000000000000000000000000000               00000000000010
00002430000000000000CAQUI                                   00000009990000000000000000PC02024053110052310000000000000000000000000000000000000000000               00000000000010
00002440000000000000PINHA                                   00000014990000000000000000PC02023072908560400000000000000000000000000000000000000000500               00000000000010
00002450000000000000Cajá                                    00000005990000000000000000PC02023040306304010000000000000000000000000000000000000000194               00000000000010
00002460000000000000BANANA DA TERRA                         00000000990000000000000000PC02023091709241510000000000000000000000000000000000000000000               00000000000010
00002470000000000000CAJU                                    00000012990000000000000000PC02023011411102700000000000000000000000000000000000000000399               00000000000010
00002480000000000000MAÇÃ PROMOÇÃO                           00000003990000000000000000PC02024082112573410000000000000000000000000000000000000000100               00000000000010
00002490000000000000ATMOIA                                  00000005990000000000000000PC02023083020403500000000000000000000000000000000000000000000               00000000000010
00002500000000000000GRAVIOLA                                00000011990000000000000000PC02023040306323810000000000000000000000000000000000000000000               00000000000010
00002520000000000000COCO VERDE PROMOÇÃO                     00000005000000000000000000PC02024051309344700000000000000000000000000000000000000000000               00000000000010
00002530000000000000Amora Caixa                             00000004990000000000000000PC02023020909341300000000000000000000000000000000000000000375               00000000000010
00002540000000000000LIMÃO SICILIANO                         00000004990000000000000000PC02022010606531410000000000000000000000000000000000000000475               00000000000010
00002550000000000000LARANJA BAHIA                           00000013990000000000000000PC02022112909535610000000000000000000000000000000000000000399               00000000000010
00002560000000000000CAQUI FUYU                              00000014990000000000000000kq02023083020402110000000000000000000000000000000000000000000               00000000000010
00002570000000000000MIXIRICA                                00000007990000000000000000kq02022111909374510000000000000000000000000000000000000000000               00000000000010
00002580000000000000MELAO REI                               00000014990000000000000000kq02023040306314510000000000000000000000000000000000000000999               00000000000010
00002590000000000000MELAO SAPO                              00000007990000000000000000kq02023120210260810000000000000000000000000000000000000000299               00000000000010
00002600000000000000PITAIA                                  00000009990000000000000000PC02023050909512800000000000000000000000000000000000000000199               00000000000010
00002610000000000000UVA VITORIA CAMBUCADA                   00000005990000000000000000PC02024081308314100000000000000000000000000000000000000000399               00000000000010
00002620000000000000LARANJA NATAL                           00000002990000000000000000PC02023110911045510000000000000000000000000000000000000000000               00000000000010
00002630000000000000MACÃ RED                                00000011990000000000000000PC02024010508155110000000000000000000000000000000000000000999               00000000000010
00002640000000000000PESSEGO PEQUENO                         00000005990000000000000000PC02023123008502210000000000000000000000000000000000000000199               00000000000010
00002650000000000000AMEIXA IMPORTADA                        00000009990000000000000000PC02024022709201910000000000000000000000000000000000000000399               00000000000010
00003010000000000000OVOS JUMBO DUZIA                        00000007990000000000000000PC02024081509120700000000000000000000000000000000000000000600               00000000000050
00003020000000000000LORO                                    00000001500000000000000000PC02023110409404800000000000000000000000000000000000000000050               00000000000030
00003030000000000000ALFACE                                  00000000490000000000000000PC02024061307333700000000000000000000000000000000000000000025               00000000000040
00003040000000000000COENTRO                                 00000000990000000000000000PC02024081509190800000000000000000000000000000000000000000020               00000000000040
00003050000000000000CHEIRO VERDE                            00000001990000000000000000PC02023042009343200000000000000000000000000000000000000000070               00000000000040
00003060000000000000ESPINAFRE                               00000002990000000000000000PC02023041607265700000000000000000000000000000000000000000070               00000000000040
00003070000000000000AGRIÃO                                  00000000990000000000000000PC02024081008344300000000000000000000000000000000000000000010               00000000000040
00003080000000000000SALSA                                   00000001990000000000000000PC02023040608144100000000000000000000000000000000000000000070               00000000000040
00003090000000000000CEBOLINHA                               00000001990000000000000003PCI2023061312143400000000000000000000000000000000000000000000               00000000000040
00003100000000000000BROCULES                                00000003990000000000000000PC02024071809320800000000000000000000000000000000000000000080               00000000000040
00003110000000000000BROCULES AMERICANO                      00000006990000000000000000PC02024082407282200000000000000000000000000000000000000000100               00000000000040
00003120000000000000COUVE                                   00000000990000000000000000PC02024081008342900000000000000000000000000000000000000000020               00000000000040
00003130000000000000HORTELÃ                                 00000001990000000000000000PC02023011408330800000000000000000000000000000000000000000070               00000000000040
00003150000000000000ALFACE AMERICANA                        00000004990000000000000000PC02023040706531300000000000000000000000000000000000000000067               00000000000040
00003160000000000000CHICORIA                                00000001990000000000000000PC02023011408320700000000000000000000000000000000000000000083               00000000000040
00003170000000000000RUCULA                                  00000000500000000000000000PC02024072309144900000000000000000000000000000000000000000020               00000000000040
00003180000000000000MOSTARDA                                00000001500000000000000000PC02023010310474800000000000000000000000000000000000000000050               00000000000040
00003190000000000000OVOS JUMBO 1/2 DUZIA                    00000003990000000000000000PC02024081509121500000000000000000000000000000000000000000200               00000000000050
00003200000000000000OVOS JUMBO CARTELA                      00000016990000000000000000PC02024081513245300000000000000000000000000000000000000000000               00000000000050
00003210000000000000ALHO PORÓ                               00000000990000000000000000PC02024011907354700000000000000000000000000000000000000000083               00000000000040
00003220000000000000SALSÃO                                  00000004990000000000000000PC02022021010015000000000000000000000000000000000000000000000               00000000000040
00003230000000000000ALECRIM                                 00000002000000000000000000PC02022050911000900000000000000000000000000000000000000000100               00000000000040
00003240000000000000MANGERICÃO                              00000002000000000000000000PC02021112316322100000000000000000000000000000000000000000150               00000000000040
00003250000000000000PROMOCAO VERDURAS                       00000001490000000000000000PC02024083009313500000000000000000000000000000000000000000079               00000000000040
00003260000000000000OVO DE CODORNA                          00000005990000000000000000PC02022070811522700000000000000000000000000000000000000000160               00000000000040
00003270000000000000OVO UNIDADE                             00000001200000000000000000PC02023051811034800000000000000000000000000000000000000000000               00000000000050
00003280000000000000ERVILHA                                 00000004990000000000000003PCI2024081008094700000000000000000000000000000000000000000100               00000000000030
00003290000000000000OVO VERMELHO 1 DUZIA                    00000014990000000000000003PCI2023031111042700000000000000000000000000000000000000000700               00000000000050
00003300000000000000OVOS GRANDE CARTELA                     00000014990000000000000003PCI2023091518160000000000000000000000000000000000000000000000               00000000000050
00004010000000000000COMINHO                                 00000001000000000000000003PCI2022070812160600000000000000000000000000000000000000000000               00000000000030
00004020000000000000PIMENTA DO REINO                        00000001000000000000000003PCI2017121614103400000000000000000000000000000000000000000023               00000000000030
00004030000000000000PIMENTA CALABRESA                       00000001000000000000000003PCI2017110915080700000000000000000000000000000000000000000030               00000000000030
00004040000000000000OREGANO                                 00000001000000000000000003PCI2017102614513700000000000000000000000000000000000000000027               00000000000030
00004050000000000000CANELA EM PÓ                            00000001000000000000000003PCI2020112516065700000000000000000000000000000000000000000000               00000000000030
00004060000000000000CANELA EM PAU                           00000150000000000000000003PCI2022090311422210000000000000000000000000000000000000001500               00000000000030
00004070000000000000COENTRO                                 00000000500000000000000003PCI2018052407352800000000000000000000000000000000000000000007               00000000000030
00004080000000000000ALECRIM                                 00000001000000000000000003PCI2016121914164400000000000000000000000000000000000000000000               00000000000030
00004090000000000000AÇAFRÃO                                 00000001000000000000000003PCI2018091209355400000000000000000000000000000000000000000018               00000000000030
00004100000000000000CRAVO                                   00000140000000000000000003PCI2022082711415110000000000000000000000000000000000000000048               00000000000030
00004110000000000000COLORAL                                 00000000500000000000000003PCI2018102310140800000000000000000000000000000000000000000018               00000000000030
00004120000000000000CURRY                                   00000001000000000000000003PCI2017113013303400000000000000000000000000000000000000000048               00000000000030
00004130000000000000MANJERICÃO                              00000000500000000000000003PCI2017092114415900000000000000000000000000000000000000000011               00000000000030
00004140000000000000TOMILHO                                 00000004990000000000000003PCI2019071909280100000000000000000000000000000000000000000000               00000000000030
00004150000000000000ERVA DOCE                               00000001000000000000000003PCI2016121914150900000000000000000000000000000000000000000000               00000000000030
00004160000000000000LOURO EM PÓ                             00000001000000000000000000PC02023083020392800000000000000000000000000000000000000000020               00000000000030
00004170000000000000CHIMICHURRI                             00000000990000000000000000PC02020121609175900000000000000000000000000000000000000000000               00000000000030
00004180000000000000SALSA DESIDRATADA                       00000000990000000000000000PC02020121609182600000000000000000000000000000000000000000000               00000000000030
00004190000000000000ALHO FRITO                              00000000990000000000000000PC02020121609183600000000000000000000000000000000000000000000               00000000000030
00004200000000000000PAPRICA                                 00000001000000000000000000PCI2021062108290100000000000000000000000000000000000000000000               00000000000030
00005010000000000000CLORO                                   00000002500000000000000003PCI2023083020391400000000000000000000000000000000000000000140               00000000000080
00005020000000000000BANDEJA                                 00000001000000000000000000PCI2023060920331100000000000000000000000000000000000000000010               00000000000060
00005030000000000000CARVÃO                                  00000014990000000000000001PCI2023113011081000000000000000000000000000000000000000000900               00000000000080
00005040000000000000SUCO 500                                00000005990000000000000000PCI2024062907154500000000000000000000000000000000000000000000               00000000000010
00005050000000000000Mel 210ml                               00000006000000000000000001PCI2023110211105700000000000000000000000000000000000000000300               00000000000080
00005060000000000000Mel 500ml                               00000012000000000000000001PCI2023110211104800000000000000000000000000000000000000000600               00000000000080
00005070000000000000Mel 1 Litro                             00000020000000000000000001PCI2023110211095300000000000000000000000000000000000000001200               00000000000080
00005080000000000000QUEIJO                                  00000024990000000000000001PCI2024070909443800000000000000000000000000000000000000001900               00000000000070
00005090000000000000BOLINHO DE BACALHAU                     00000029990000000000000001PCI2023110410474500000000000000000000000000000000000000000000               00000000000080
00005100000000000000BOLINHO DE CAMARÃO                      00000030000000000000000001PCI2023083020382300000000000000000000000000000000000000000000               00000000000080
00005110000000000000LINGUIÇA 500G                           00000016990000000000000001PCI2024080109551400000000000000000000000000000000000000001200               00000000000070
00005120000000000000GOIABADA                                00000011990000000000000001PCI2023112508333500000000000000000000000000000000000000000000               00000000000080
00005130000000000000DOCE DE LEITE                           00000013000000000000000001PCI2023083020375900000000000000000000000000000000000000000000               00000000000080
00005140000000000000SAL GROSSO TEMPERADO                    00000003000000000000000001PCI2023083020375200000000000000000000000000000000000000000000               00000000000080
00005150000000000000MANTEIGA                                00000008990000000000000001PCI2023112115222100000000000000000000000000000000000000000000               00000000000080
00005160000000000000PIMENTA GARRAFA                         00000010000000000000000001PCI2023083020373700000000000000000000000000000000000000000000               00000000000080
00005170000000000000MOLHO DE PIMENTA GARRAFA                00000007000000000000000001PCI2023083020372400000000000000000000000000000000000000000000               00000000000060
00005180000000000000QUEIJO TIPO REINO                       00000035000000000000000001PCI2021062108481000000000000000000000000000000000000000000000               00000000000070
00005190000000000000QUEJI MUSSARELA PALITO                  00000035000000000000000001PCI2021062108481800000000000000000000000000000000000000000000               00000000000070
00005200000000000000QUEIJO NAPOLITANO                       00000035000000000000000001PCI2021062108482500000000000000000000000000000000000000000000               00000000000070
00005210000000000000QUEIJO MUSSARELA NOZINHO                00000035000000000000000001PCI2021062108483100000000000000000000000000000000000000000000               00000000000070
00005220000000000000QUEIJO MEIA CURA MEIA PEÇA              00000023990000000000000001PCI2024073118320100000000000000000000000000000000000000001850               00000000000070
00005230000000000000QUEIJO MEIA CURA PEÇA INTEIRA           00000035000000000000000001PCI2024011917394000000000000000000000000000000000000000000000               00000000000070
00005240000000000000FEIJÃO 1KG                              00000005990000000000000001PCI2024050814265800000000000000000000000000000000000000000300               00000000000080
00005250000000000000ARROZ 1KG                               00000004990000000000000001PCI2024050814302700000000000000000000000000000000000000000299               00000000000080
00005260000000000000MACARRÃO ESPAGUETE 500G                 00000003490000000000000001PCI2023111615015200000000000000000000000000000000000000000299               00000000000080
00005270000000000000MACARRÃO TALHARIM 500G                  00000003990000000000000001PCI2022052017313400000000000000000000000000000000000000000299               00000000000080
00005280000000000000MACARRÃO DE SOPA 500G                   00000002990000000000000001PCI2022052017320000000000000000000000000000000000000000000199               00000000000080
00005290000000000000LEITE CX 1LITRO                         00000004990000000000000001PCI2024073114072100000000000000000000000000000000000000000100               00000000000080
00005300000000000000EXTRATO DE TOMATE                       00000001990000000000000001PCI2023061113513100000000000000000000000000000000000000000049               00000000000080
00005310000000000000QUEIJO PROVOLONE DESIDRATADO            00000017000000000000000001PCI2022071312100300000000000000000000000000000000000000001500               00000000000080
00005320000000000000BISCOITO CREAM CRACKER                  00000001990000000000000001PCI2022052017341500000000000000000000000000000000000000000149               00000000000080
00005330000000000000BISCOITO MAIZENA                        00000001990000000000000001PCI2022052017343800000000000000000000000000000000000000000149               00000000000080
00005340000000000000BISCOITO ROSQUINHA                      00000007990000000000000001PCI2022110511200800000000000000000000000000000000000000000199               00000000000080
00005350000000000000QUEIJO RICOTA                           00000005000000000000000001PCI2023021521434900000000000000000000000000000000000000000200               00000000000070
00005360000000000000QUEIJO TIRA GOSTO                       00000014990000000000000001PCI2022110510594100000000000000000000000000000000000000000999               00000000000070
00005370000000000000QUEIJO METADE                           00000012500000000000000001PCI2024071118572600000000000000000000000000000000000000000499               00000000000070
00005380000000000000Iogurte Integral                        00000001990000000000000001PC02024050315105500000000000000000000000000000000000000000000CEASA          00000000000080
00005390000000000000ÓLEO DE SOJA                            00000006490000000000000001PC02024050313292900000000000000000000000000000000000000000349CEASA          00000000000080
00005400000000000000AVEIA                                   00000002990000000000000001PC02023101608441900000000000000000000000000000000000000000199CEASA          00000000000080
00005410000000000000MACARRÃO PARAFUSO                       00000003990000000000000001PC02023101608442400000000000000000000000000000000000000000199CEASA          00000000000080
00005420000000000000ACHOCOLATADO                            00000003990000000000000001PC02023101608443000000000000000000000000000000000000000000199CEASA          00000000000080
00005430000000000000FERMENTO                                00000002990000000000000001PC02023101608443500000000000000000000000000000000000000000199CEASA          00000000000080
00005440000000000000BISCOITO ARTESANAL                      00000009990000000000000001PC02023101608444000000000000000000000000000000000000000000799CEASA          00000000000080
00005450000000000000RAPADURA                                00000009990000000000000001PC02023101608444600000000000000000000000000000000000000000699CEASA          00000000000080
00005460000000000000CANJICA                                 00000003990000000000000000PC02023101608445300000000000000000000000000000000000000000199CEASA          00000000000080
00005470000000000000QUEIJO DESIDRATADO                      00000019990000000000000001PC02023101608445800000000000000000000000000000000000000001599CEASA          00000000000080
00005480000000000000AMENDOIM DOCE                           00000002500000000000000001PCI2023101608450700000000000000000000000000000000000000000000               00000000000080
00005490000000000000MERCADO PROMOÇÃO                        00000001000000000000000001PCI2023101608451600000000000000000000000000000000000000000000               00000000000080
00005500000000000000FARINHA DE MANDIOCA                     00000004990000000000000001PCI2023101608452200000000000000000000000000000000000000000299               00000000000080
00005510000000000000AÇUCAR                                  00000003990000000000000001PCI2024080216394800000000000000000000000000000000000000000249               00000000000080
00005520000000000000AGUA MINERAL S/G 500ML                  00000002000000000000000001PCI2023110114551500000000000000000000000000000000000000000100               00000000000090
00005530000000000000GUARAVITA                               00000002000000000000000001PCI2023110114551000000000000000000000000000000000000000000100               00000000000090
00005540000000000000COCA COLA LATA                          00000002990000000000000001PCI2023110114550400000000000000000000000000000000000000000250               00000000000090
00005550000000000000AGUA MINERAL 1,5L                       00000003990000000000000001PCI2023110114545600000000000000000000000000000000000000000150               00000000000090
00005560000000000000MAIONESE 200ML                          00000001490000000000000001PCI2023101608461000000000000000000000000000000000000000000050               00000000000080
00005570000000000000COCADA                                  00000004990000000000000001PCI2023101608461500000000000000000000000000000000000000000299               00000000000080
00005580000000000000REQUEIJÃO                               00000004990000000000000001PCI2023101608462100000000000000000000000000000000000000000250               00000000000080
00005590000000000000FEIJÃO MARRON                           00000004990000000000000001PCI2023101608462600000000000000000000000000000000000000000000               00000000000080
00005600000000000000AGUA DE COCO GARRAFA 500ML              00000005990000000000000000PCI2024081509112800000000000000000000000000000000000000000299               00000000000010
00005610000000000000QUEJO MEIA CURA PEÇA (VACUO)            00000034990000000000000000PCI2024042308362800000000000000000000000000000000000000002500               00000000000070
00005620000000000000QUEIJO MEIA CURA MEIA PEÇA (VACUO)      00000019990000000000000000PCI2023113020272300000000000000000000000000000000000000001750               00000000000070
00005630000000000000GUARAVITON                              00000004990000000000000001PCI2024022216481700000000000000000000000000000000000000000227               00000000000090
00005640000000000000CERVEJA HEINEKEN LONGNECK               00000009990000000000000001PCI2024071313464700000000000000000000000000000000000000000000               00000000000090
00005650000000000000CERVEJA BRAHMA D/M LATA                 00000005990000000000000001PCI2024071313481500000000000000000000000000000000000000000000               00000000000090
00005660000000000000CERVEJA IMPERIO LATA                    00000004990000000000000001PCI2024071313490700000000000000000000000000000000000000000000               00000000000090
00005670000000000000POWERADE 500ml                          00000007990000000000000001PCI2024071313493700000000000000000000000000000000000000000000               00000000000090
00006000000000000000PICOLE                                  00000001990000000000000001PCI2023112717452100000000000000000000000000000000000000000089               00000000000080
00006010000000000000BOLSA PLASCOL                           00000002000000000000000000PC02018010314262200000000000000000000000000000000000000003000CEASA          00000000000060
00006020000000000000BOLSA 40X50(MILHEIRO)                   00000002000000000000000000PC02017120514345100000000000000000000000000000000000000003500CEASA          00000000000060
00006030000000000000BOLSA 20X35(MILHEIRO)                   00000002000000000000000000PC02017083117360500000000000000000000000000000000000000000100CEASA          00000000000060
00006040000000000000BOBINA SAQUINHO TAM "M"                 00000002000000000000000000PC02017102415264700000000000000000000000000000000000000001000CEASA          00000000000060
00006050000000000000ROLO PVC (PLÁSTICO FILME)               00000002000000000000000000PC02017091415175700000000000000000000000000000000000000002500CEASA          00000000000060
00006060000000000000FITILHO                                 00000002000000000000000000PC02017123007191200000000000000000000000000000000000000000700CEASA          00000000000060
00006070000000000000BOBINA DE PAPEL(IMPRESSORA)             00000002000000000000000000PC02017083117384300000000000000000000000000000000000000000100CEASA          00000000000060
00006080000000000000SAQUINHO DE PAPEL                       00000002000000000000000000PC02017100913582000000000000000000000000000000000000000000160CEASA          00000000000060
00006090000000000000COMÉIA DE OVOS                          00000002000000000000000000PC02017083117391500000000000000000000000000000000000000000100CEASA          00000000000060
00006100000000000000COMEIA IZOPOR OVOS                      00000002000000000000000000PC02017083117392900000000000000000000000000000000000000000100CEASA          00000000000060
00006110000000000000BANDEJA IZOPOR                          00000002000000000000000000PC02017120814474000000000000000000000000000000000000000002500CEASA          00000000000060
00006120000000000000PILOTO                                  00000002000000000000000000PC02017083117400100000000000000000000000000000000000000000100CEASA          00000000000060
00006130000000000000CANETA                                  00000002000000000000000000PC02017083117401100000000000000000000000000000000000000000100CEASA          00000000000060
00006140000000000000FITA DUREX                              00000002000000000000000000PC02017083117402600000000000000000000000000000000000000000100CEASA          00000000000060
00006150000000000000PAPEL A4                                00000002000000000000000000PC02017083117405600000000000000000000000000000000000000000100CEASA          00000000000060
00006160000000000000CARREGADOR                              00000002000000000000000000PC02021111218155000000000000000000000000000000000000000000100CEASA          00000000000060
00006170000000000000PLACA DE PREÇO                          00000002000000000000000000PC02017083117412100000000000000000000000000000000000000000100CEASA          00000000000060
00006180000000000000GAS                                     00000002000000000000000000PC02017112914394200000000000000000000000000000000000000002000CEASA          00000000000060
00006190000000000000TAXA DE ENTREGA                         00000005000000000000000000PC02023110309443400000000000000000000000000000000000000000000CEASA          00000000000060
00010100000000000000BATATA LISA (PROMOCAO)                  00000002990000000000000000PC02024032410412910000000000000000000000000000000000000000050               00000000000020
00010200000000000000BATATA CAROÇO                           00000002990000000000000000PC02024012009071210000000000000000000000000000000000000000049               00000000000020
00010300000000000000BATATA ASTERIX                          00000004990000000000000000PC02024031307290810000000000000000000000000000000000000000249               00000000000020
00010600000000000000CENOURA PROMOÇÃO                        00000001990000000000000000PC02024070408250110000000000000000000000000000000000000000000               00000000000020
00010700000000000000ALHO PROMOÇÃO                           00000007990000000000000000PC02023072707171410000000000000000000000000000000000000000000               00000000000020
00010800000000000000TOMATE PROMOÇÃO                         00000001990000000000000000PC02024071809334010000000000000000000000000000000000000000099               00000000000020
00010900000000000000PIMENTAO PROMOCAO                       00000005990000000000000000PC02023030409264310000000000000000000000000000000000000000199               00000000000020
00011000000000000000BATATA DOCE PROMOÇÃO                    00000002990000000000000000PC02024083007234010000000000000000000000000000000000000000099               00000000000020
00011100000000000000BETERRABA                               00000004990000000000000000PC02023120209153410000000000000000000000000000000000000000299               00000000000010
00011200000000000000INHAME PROMOÇÃO                         00000003990000000000000000PC02023050613064710000000000000000000000000000000000000000000               00000000000010
00011400000000000000JILO PROMOÇÃO                           00000003990000000000000000PC02023042508151010000000000000000000000000000000000000000000               00000000000010
00011500000000000000QUIABO PROMOÇÃO                         00000002990000000000000000PC02023022707193710000000000000000000000000000000000000000000               00000000000020
00011800000000000000PEPIONO JAPONE PROMOÇÃO                 00000001990000000000000000PC02023050110135810000000000000000000000000000000000000000000               00000000000020
00012200000000000000ABOBORA PROMOÇÃO                        00000002990000000000000000PC02023050112471310000000000000000000000000000000000000000000               00000000000010
00012500000000000000CHUCHU PROMOÇÃO                         00000004990000000000000000PCI2023090510321910000000000000000000000000000000000000000000               00000000000020
00020100000000000000LARANJA PÊRA PROMOÇÃO                   00000003990000000000000000PC02024041808192010000000000000000000000000000000000000000200               00000000000010
00020200000000000000LARANJA LIMA PROMOÇÃO                   00000002990000000000000000PC02023022711123010000000000000000000000000000000000000000100               00000000000010
00020400000000000000LIMÃO PROMOÇÃO                          00000003990000000000000000PC02023033005251010000000000000000000000000000000000000000000               00000000000010
00020500000000000000TANGERINA POKAN PROMOCAO                00000002990000000000000000PC02024071815013310000000000000000000000000000000000000000049               00000000000010
00020700000000000000BANANA PRATA PROMOÇÃO                   00000002990000000000000000PC02024082510033710000000000000000000000000000000000000000050CEASA          00000000000010
00020800000000000000BANANA D'AGUA PROMOCAO                  00000000990000000000000000PC02024012008312710000000000000000000000000000000000000000050               00000000000010
00021100000000000000ABACATE PROMOÇÃO                        00000001990000000000000000PC02023072017463310000000000000000000000000000000000000000099               00000000000010
00021400000000000000MAMÃO FORMOSA PROMOÇÃO                  00000003990000000000000000PC02024062207513800000000000000000000000000000000000000000199               00000000000010
00021500000000000000MAMÃO PAPAYA PROMOÇÃO                   00000004990000000000000000PC02024062114211200000000000000000000000000000000000000000099               00000000000010
00021800000000000000UVA ROSADA PROMOCAO                     00000002990000000000000000PC02023030409300000000000000000000000000000000000000000000099               00000000000010
00022600000000000000MANGA PALMER PROMOÇÃO                   00000001990000000000000000PC02023070108530810000000000000000000000000000000000000000099               00000000000010
00022800000000000000GOIABA PROMOCAO                         00000001990000000000000000PC02024020812280610000000000000000000000000000000000000000000               00000000000010
00023300000000000000KIWI POR KILO                           00000039900000000000000000PC02023102321345810000000000000000000000000000000000000002000               00000000000010
00023600000000000000MELANCIA UNIDADE PROMOÇÃO               00000004990000000000000000PC02023022716363700000000000000000000000000000000000000000200               00000000000010
00024300000000000000CAQUI PROMOÇÃO                          00000002990000000000000000PC02023062410201610000000000000000000000000000000000000000099               00000000000010
00024600000000000000BANANA DA TERRA PROMOCAO                00000003990000000000000000PC02023080714425310000000000000000000000000000000000000000099               00000000000010
