01000009000000200126112310390000010000000100000000000000001.82G5E   1234567890AB        Generica            
02000009000100200126112310390000010000090000000000
14000010000000200126112310400000010000000000
14000011000000200126112313440000010000000000
14000012000000200126112314270000010000000000
14000013000000200126112314370000010000000000
14000014000000200126112314380000010000000000
14000015000000200126112314380000010000000000
14000016000000200126112314410000010000000000
14000017000000200126112314410000010000000000
14000018000000200126112314430000010000000000
14000019000000200126112314510000010000000000
14000020000000200126112314510000010000000000
14000021000000200126112314520000010000000000
14000022000000200126112314550000010000000000
14000023000000200126112314550000010000000000
14000024000000200126112314560000010000000000
14000025000000200126112314560000010000000000
14000026000000200126112315040000010000000000
14000027000000200126112315180000010000000000
14000028000000200126112315190000010000000000
14000029000000200126112315200000010000000000
14000030000000200126112315270000010000000000
14000031000000200126112315340000010000000000
14000032000000200126112315350000010000000000
14000033000000200127112315550000010000000000
14000034000000200127112315560000010000000499
14000035000000200127112315570000010000000000
14000036000000200127112315580000010000000000
14000037000000200127112315590000010000000000
14000038000000200127112317200000010000000000
14000039000000200127112317200000010000000000
14000040000000200127112317240000010000000000
14000041000000200127112317260000010000000000
14000042000000200127112317270000010000000240
14000043000000200127112317280000010000000096
0400004400000020012711231731000001000009000044000000000000000000000000083527112300000000000000000000000000000000000008350001000000000000000000000000000000000000000000000000000000000000000000000000000000001234567890AB        
