USUF00080000000720230930105205
000000030000Operador                                ]       2000000000000000000000000
000000040000RACHEL                                  [`]]    2000000040004000100000000
000000050000MIRIAN                                  []_     2000000000004000100000000
000000060000SHEYLA                                  []_     2000000000004000100000000
000000070000Paula                                   [a^`    2000000040004000100000000
000000080000Daniele                                 [       2000000040004000100000000
000000090000Gerente                                 [       0000000040004000100000000
